{
  "address": "0x7Fea58441d48E844ceB97b40133216321590da46",
  "abi": [
    {
      "inputs": [
        {
          "internalType": "address",
          "name": "priceFeedAddress",
          "type": "address"
        }
      ],
      "stateMutability": "nonpayable",
      "type": "constructor"
    },
    {
      "inputs": [
        {
          "internalType": "address",
          "name": "",
          "type": "address"
        }
      ],
      "name": "addressToAmountFunded",
      "outputs": [
        {
          "internalType": "uint256",
          "name": "",
          "type": "uint256"
        }
      ],
      "stateMutability": "view",
      "type": "function"
    },
    {
      "inputs": [],
      "name": "fund",
      "outputs": [],
      "stateMutability": "payable",
      "type": "function"
    },
    {
      "inputs": [
        {
          "internalType": "uint256",
          "name": "",
          "type": "uint256"
        }
      ],
      "name": "funders",
      "outputs": [
        {
          "internalType": "address",
          "name": "",
          "type": "address"
        }
      ],
      "stateMutability": "view",
      "type": "function"
    },
    {
      "inputs": [],
      "name": "minimumUsd",
      "outputs": [
        {
          "internalType": "uint256",
          "name": "",
          "type": "uint256"
        }
      ],
      "stateMutability": "view",
      "type": "function"
    },
    {
      "inputs": [],
      "name": "owner",
      "outputs": [
        {
          "internalType": "address",
          "name": "",
          "type": "address"
        }
      ],
      "stateMutability": "view",
      "type": "function"
    },
    {
      "inputs": [],
      "name": "priceFeed",
      "outputs": [
        {
          "internalType": "contract AggregatorV3Interface",
          "name": "",
          "type": "address"
        }
      ],
      "stateMutability": "view",
      "type": "function"
    },
    {
      "inputs": [],
      "name": "withdraw",
      "outputs": [],
      "stateMutability": "nonpayable",
      "type": "function"
    }
  ],
  "transactionHash": "0xaaef407ef4035bf736f4b2599ea008a0a2ec8d2b00071e674adbf8cbbd6198fb",
  "args": [
    "0xD4a33860578De61DBAbDc8BFdb98FD742fA7028e"
  ],
  "numDeployments": 1,
  "solcInputHash": "87b7248dc5cdf07b2cf2c6fdc7c8d72e",
  "bytecode": "0x60a060405234801561001057600080fd5b5060405162000feb38038062000feb83398181016040528101906100349190610115565b3373ffffffffffffffffffffffffffffffffffffffff1660808173ffffffffffffffffffffffffffffffffffffffff1660601b8152505080600260006101000a81548173ffffffffffffffffffffffffffffffffffffffff021916908373ffffffffffffffffffffffffffffffffffffffff16021790555050610142565b600080fd5b600073ffffffffffffffffffffffffffffffffffffffff82169050919050565b60006100e2826100b7565b9050919050565b6100f2816100d7565b81146100fd57600080fd5b50565b60008151905061010f816100e9565b92915050565b60006020828403121561012b5761012a6100b2565b5b600061013984828501610100565b91505092915050565b60805160601c610e8362000168600039600081816101a001526104280152610e836000f3fe6080604052600436106100705760003560e01c8063741bef1a1161004e578063741bef1a146100f45780638da5cb5b1461011f578063b60d42881461014a578063dc0d3dff1461015457610070565b8063098de820146100755780633ccfd60b146100a05780633e47d6f3146100b7575b600080fd5b34801561008157600080fd5b5061008a610191565b604051610097919061074e565b60405180910390f35b3480156100ac57600080fd5b506100b561019e565b005b3480156100c357600080fd5b506100de60048036038101906100d991906107cc565b6103e8565b6040516100eb919061074e565b60405180910390f35b34801561010057600080fd5b50610109610400565b6040516101169190610858565b60405180910390f35b34801561012b57600080fd5b50610134610426565b6040516101419190610882565b60405180910390f35b61015261044a565b005b34801561016057600080fd5b5061017b600480360381019061017691906108c9565b610573565b6040516101889190610882565b60405180910390f35b6802b5e3af16b188000081565b7f000000000000000000000000000000000000000000000000000000000000000073ffffffffffffffffffffffffffffffffffffffff163373ffffffffffffffffffffffffffffffffffffffff161461022c576040517f08c379a000000000000000000000000000000000000000000000000000000000815260040161022390610953565b60405180910390fd5b60005b6000805490508110156102d857600080828154811061025157610250610973565b5b9060005260206000200160009054906101000a900473ffffffffffffffffffffffffffffffffffffffff1690506000600160008373ffffffffffffffffffffffffffffffffffffffff1673ffffffffffffffffffffffffffffffffffffffff16815260200190815260200160002081905550506001816102d191906109d1565b905061022f565b50600067ffffffffffffffff8111156102f4576102f3610a27565b5b6040519080825280602002602001820160405280156103225781602001602082028036833780820191505090505b506000908051906020019061033892919061068e565b5060003373ffffffffffffffffffffffffffffffffffffffff164760405161035f90610a87565b60006040518083038185875af1925050503d806000811461039c576040519150601f19603f3d011682016040523d82523d6000602084013e6103a1565b606091505b50509050806103e5576040517f08c379a00000000000000000000000000000000000000000000000000000000081526004016103dc90610ae8565b60405180910390fd5b50565b60016020528060005260406000206000915090505481565b600260009054906101000a900473ffffffffffffffffffffffffffffffffffffffff1681565b7f000000000000000000000000000000000000000000000000000000000000000081565b6802b5e3af16b1880000610489600260009054906101000a900473ffffffffffffffffffffffffffffffffffffffff16346105b290919063ffffffff16565b10156104ca576040517f08c379a00000000000000000000000000000000000000000000000000000000081526004016104c190610b54565b60405180910390fd5b6000339080600181540180825580915050600190039060005260206000200160009091909190916101000a81548173ffffffffffffffffffffffffffffffffffffffff021916908373ffffffffffffffffffffffffffffffffffffffff16021790555034600160003373ffffffffffffffffffffffffffffffffffffffff1673ffffffffffffffffffffffffffffffffffffffff16815260200190815260200160002081905550565b6000818154811061058357600080fd5b906000526020600020016000915054906101000a900473ffffffffffffffffffffffffffffffffffffffff1681565b6000806105be836105ee565b90506000670de0b6b3a764000085836105d79190610b74565b6105e19190610bfd565b9050809250505092915050565b6000808273ffffffffffffffffffffffffffffffffffffffff1663feaf968c6040518163ffffffff1660e01b815260040160a06040518083038186803b15801561063757600080fd5b505afa15801561064b573d6000803e3d6000fd5b505050506040513d601f19601f8201168201806040525081019061066f9190610cbb565b5050509150506402540be400816106869190610d36565b915050919050565b828054828255906000526020600020908101928215610707579160200282015b828111156107065782518260006101000a81548173ffffffffffffffffffffffffffffffffffffffff021916908373ffffffffffffffffffffffffffffffffffffffff160217905550916020019190600101906106ae565b5b5090506107149190610718565b5090565b5b80821115610731576000816000905550600101610719565b5090565b6000819050919050565b61074881610735565b82525050565b6000602082019050610763600083018461073f565b92915050565b600080fd5b600073ffffffffffffffffffffffffffffffffffffffff82169050919050565b60006107998261076e565b9050919050565b6107a98161078e565b81146107b457600080fd5b50565b6000813590506107c6816107a0565b92915050565b6000602082840312156107e2576107e1610769565b5b60006107f0848285016107b7565b91505092915050565b6000819050919050565b600061081e6108196108148461076e565b6107f9565b61076e565b9050919050565b600061083082610803565b9050919050565b600061084282610825565b9050919050565b61085281610837565b82525050565b600060208201905061086d6000830184610849565b92915050565b61087c8161078e565b82525050565b60006020820190506108976000830184610873565b92915050565b6108a681610735565b81146108b157600080fd5b50565b6000813590506108c38161089d565b92915050565b6000602082840312156108df576108de610769565b5b60006108ed848285016108b4565b91505092915050565b600082825260208201905092915050565b7f53656e646572206973206e6f74206f776e657221000000000000000000000000600082015250565b600061093d6014836108f6565b915061094882610907565b602082019050919050565b6000602082019050818103600083015261096c81610930565b9050919050565b7f4e487b7100000000000000000000000000000000000000000000000000000000600052603260045260246000fd5b7f4e487b7100000000000000000000000000000000000000000000000000000000600052601160045260246000fd5b60006109dc82610735565b91506109e783610735565b9250827fffffffffffffffffffffffffffffffffffffffffffffffffffffffffffffffff03821115610a1c57610a1b6109a2565b5b828201905092915050565b7f4e487b7100000000000000000000000000000000000000000000000000000000600052604160045260246000fd5b600081905092915050565b50565b6000610a71600083610a56565b9150610a7c82610a61565b600082019050919050565b6000610a9282610a64565b9150819050919050565b7f43616c6c204661696c6564000000000000000000000000000000000000000000600082015250565b6000610ad2600b836108f6565b9150610add82610a9c565b602082019050919050565b60006020820190508181036000830152610b0181610ac5565b9050919050565b7f4469646e27742073656e6420656e6f7567680000000000000000000000000000600082015250565b6000610b3e6012836108f6565b9150610b4982610b08565b602082019050919050565b60006020820190508181036000830152610b6d81610b31565b9050919050565b6000610b7f82610735565b9150610b8a83610735565b9250817fffffffffffffffffffffffffffffffffffffffffffffffffffffffffffffffff0483118215151615610bc357610bc26109a2565b5b828202905092915050565b7f4e487b7100000000000000000000000000000000000000000000000000000000600052601260045260246000fd5b6000610c0882610735565b9150610c1383610735565b925082610c2357610c22610bce565b5b828204905092915050565b600069ffffffffffffffffffff82169050919050565b610c4d81610c2e565b8114610c5857600080fd5b50565b600081519050610c6a81610c44565b92915050565b6000819050919050565b610c8381610c70565b8114610c8e57600080fd5b50565b600081519050610ca081610c7a565b92915050565b600081519050610cb58161089d565b92915050565b600080600080600060a08688031215610cd757610cd6610769565b5b6000610ce588828901610c5b565b9550506020610cf688828901610c91565b9450506040610d0788828901610ca6565b9350506060610d1888828901610ca6565b9250506080610d2988828901610c5b565b9150509295509295909350565b6000610d4182610c70565b9150610d4c83610c70565b9250827f7fffffffffffffffffffffffffffffffffffffffffffffffffffffffffffffff0482116000841360008413161615610d8b57610d8a6109a2565b5b817f80000000000000000000000000000000000000000000000000000000000000000583126000841260008413161615610dc857610dc76109a2565b5b827f80000000000000000000000000000000000000000000000000000000000000000582126000841360008412161615610e0557610e046109a2565b5b827f7fffffffffffffffffffffffffffffffffffffffffffffffffffffffffffffff0582126000841260008412161615610e4257610e416109a2565b5b82820290509291505056fea2646970667358221220f39653f2e1ed8017b87b36c2f3351e83dfd58183daa2ead517815a14ccad626464736f6c63430008080033",
  "devdoc": {
    "kind": "dev",
    "methods": {},
    "version": 1
  },
  "userdoc": {
    "kind": "user",
    "methods": {},
    "version": 1
  },
  "storageLayout": {
    "storage": [
      {
        "astId": 59,
        "contract": "contracts/FundMe.sol:FundMe",
        "label": "funders",
        "offset": 0,
        "slot": "0",
        "type": "t_array(t_address)dyn_storage"
      },
      {
        "astId": 65,
        "contract": "contracts/FundMe.sol:FundMe",
        "label": "addressToAmountFunded",
        "offset": 0,
        "slot": "1",
        "type": "t_mapping(t_address,t_uint256)"
      },
      {
        "astId": 68,
        "contract": "contracts/FundMe.sol:FundMe",
        "label": "priceFeed",
        "offset": 0,
        "slot": "2",
        "type": "t_contract(AggregatorV3Interface)45"
      }
    ],
    "types": {
      "t_address": {
        "encoding": "inplace",
        "label": "address",
        "numberOfBytes": "20"
      },
      "t_array(t_address)dyn_storage": {
        "base": "t_address",
        "encoding": "dynamic_array",
        "label": "address[]",
        "numberOfBytes": "32"
      },
      "t_contract(AggregatorV3Interface)45": {
        "encoding": "inplace",
        "label": "contract AggregatorV3Interface",
        "numberOfBytes": "20"
      },
      "t_mapping(t_address,t_uint256)": {
        "encoding": "mapping",
        "key": "t_address",
        "label": "mapping(address => uint256)",
        "numberOfBytes": "32",
        "value": "t_uint256"
      },
      "t_uint256": {
        "encoding": "inplace",
        "label": "uint256",
        "numberOfBytes": "32"
      }
    }
  }
}